{
  "contractName": "Marketplace",
  "abi": [
    {
      "constant": true,
      "inputs": [
        {
          "internalType": "bytes4",
          "name": "interfaceId",
          "type": "bytes4"
        }
      ],
      "name": "supportsInterface",
      "outputs": [
        {
          "internalType": "bool",
          "name": "",
          "type": "bool"
        }
      ],
      "payable": false,
      "stateMutability": "view",
      "type": "function"
    },
    {
      "constant": true,
      "inputs": [],
      "name": "name",
      "outputs": [
        {
          "internalType": "string",
          "name": "",
          "type": "string"
        }
      ],
      "payable": false,
      "stateMutability": "view",
      "type": "function"
    },
    {
      "constant": true,
      "inputs": [
        {
          "internalType": "uint256",
          "name": "tokenId",
          "type": "uint256"
        }
      ],
      "name": "getApproved",
      "outputs": [
        {
          "internalType": "address",
          "name": "",
          "type": "address"
        }
      ],
      "payable": false,
      "stateMutability": "view",
      "type": "function"
    },
    {
      "constant": false,
      "inputs": [
        {
          "internalType": "address",
          "name": "to",
          "type": "address"
        },
        {
          "internalType": "uint256",
          "name": "tokenId",
          "type": "uint256"
        }
      ],
      "name": "approve",
      "outputs": [],
      "payable": false,
      "stateMutability": "nonpayable",
      "type": "function"
    },
    {
      "constant": false,
      "inputs": [
        {
          "internalType": "address",
          "name": "from",
          "type": "address"
        },
        {
          "internalType": "address",
          "name": "to",
          "type": "address"
        },
        {
          "internalType": "uint256",
          "name": "tokenId",
          "type": "uint256"
        }
      ],
      "name": "transferFrom",
      "outputs": [],
      "payable": false,
      "stateMutability": "nonpayable",
      "type": "function"
    },
    {
      "constant": false,
      "inputs": [
        {
          "internalType": "address",
          "name": "from",
          "type": "address"
        },
        {
          "internalType": "address",
          "name": "to",
          "type": "address"
        },
        {
          "internalType": "uint256",
          "name": "tokenId",
          "type": "uint256"
        }
      ],
      "name": "safeTransferFrom",
      "outputs": [],
      "payable": false,
      "stateMutability": "nonpayable",
      "type": "function"
    },
    {
      "constant": true,
      "inputs": [
        {
          "internalType": "uint256",
          "name": "tokenId",
          "type": "uint256"
        }
      ],
      "name": "ownerOf",
      "outputs": [
        {
          "internalType": "address",
          "name": "",
          "type": "address"
        }
      ],
      "payable": false,
      "stateMutability": "view",
      "type": "function"
    },
    {
      "constant": true,
      "inputs": [
        {
          "internalType": "address",
          "name": "owner",
          "type": "address"
        }
      ],
      "name": "balanceOf",
      "outputs": [
        {
          "internalType": "uint256",
          "name": "",
          "type": "uint256"
        }
      ],
      "payable": false,
      "stateMutability": "view",
      "type": "function"
    },
    {
      "constant": true,
      "inputs": [
        {
          "internalType": "uint256",
          "name": "",
          "type": "uint256"
        }
      ],
      "name": "products",
      "outputs": [
        {
          "internalType": "uint256",
          "name": "id",
          "type": "uint256"
        },
        {
          "internalType": "string",
          "name": "name",
          "type": "string"
        },
        {
          "internalType": "uint256",
          "name": "price",
          "type": "uint256"
        },
        {
          "internalType": "address payable",
          "name": "owner",
          "type": "address"
        },
        {
          "internalType": "bool",
          "name": "purchased",
          "type": "bool"
        }
      ],
      "payable": false,
      "stateMutability": "view",
      "type": "function"
    },
    {
      "constant": false,
      "inputs": [
        {
          "internalType": "address",
          "name": "to",
          "type": "address"
        },
        {
          "internalType": "bool",
          "name": "approved",
          "type": "bool"
        }
      ],
      "name": "setApprovalForAll",
      "outputs": [],
      "payable": false,
      "stateMutability": "nonpayable",
      "type": "function"
    },
    {
      "constant": false,
      "inputs": [
        {
          "internalType": "address",
          "name": "from",
          "type": "address"
        },
        {
          "internalType": "address",
          "name": "to",
          "type": "address"
        },
        {
          "internalType": "uint256",
          "name": "tokenId",
          "type": "uint256"
        },
        {
          "internalType": "bytes",
          "name": "_data",
          "type": "bytes"
        }
      ],
      "name": "safeTransferFrom",
      "outputs": [],
      "payable": false,
      "stateMutability": "nonpayable",
      "type": "function"
    },
    {
      "constant": true,
      "inputs": [],
      "name": "productCount",
      "outputs": [
        {
          "internalType": "uint256",
          "name": "",
          "type": "uint256"
        }
      ],
      "payable": false,
      "stateMutability": "view",
      "type": "function"
    },
    {
      "constant": true,
      "inputs": [
        {
          "internalType": "address",
          "name": "owner",
          "type": "address"
        },
        {
          "internalType": "address",
          "name": "operator",
          "type": "address"
        }
      ],
      "name": "isApprovedForAll",
      "outputs": [
        {
          "internalType": "bool",
          "name": "",
          "type": "bool"
        }
      ],
      "payable": false,
      "stateMutability": "view",
      "type": "function"
    },
    {
      "inputs": [],
      "payable": false,
      "stateMutability": "nonpayable",
      "type": "constructor"
    },
    {
      "anonymous": false,
      "inputs": [
        {
          "indexed": false,
          "internalType": "uint256",
          "name": "id",
          "type": "uint256"
        },
        {
          "indexed": false,
          "internalType": "string",
          "name": "name",
          "type": "string"
        },
        {
          "indexed": false,
          "internalType": "uint256",
          "name": "price",
          "type": "uint256"
        },
        {
          "indexed": false,
          "internalType": "address payable",
          "name": "owner",
          "type": "address"
        },
        {
          "indexed": false,
          "internalType": "bool",
          "name": "purchased",
          "type": "bool"
        }
      ],
      "name": "ProductCreated",
      "type": "event"
    },
    {
      "anonymous": false,
      "inputs": [
        {
          "indexed": false,
          "internalType": "uint256",
          "name": "id",
          "type": "uint256"
        },
        {
          "indexed": false,
          "internalType": "string",
          "name": "name",
          "type": "string"
        },
        {
          "indexed": false,
          "internalType": "uint256",
          "name": "price",
          "type": "uint256"
        },
        {
          "indexed": false,
          "internalType": "address payable",
          "name": "owner",
          "type": "address"
        },
        {
          "indexed": false,
          "internalType": "bool",
          "name": "purchased",
          "type": "bool"
        }
      ],
      "name": "ProductPurchased",
      "type": "event"
    },
    {
      "anonymous": false,
      "inputs": [
        {
          "indexed": true,
          "internalType": "address",
          "name": "from",
          "type": "address"
        },
        {
          "indexed": true,
          "internalType": "address",
          "name": "to",
          "type": "address"
        },
        {
          "indexed": true,
          "internalType": "uint256",
          "name": "tokenId",
          "type": "uint256"
        }
      ],
      "name": "Transfer",
      "type": "event"
    },
    {
      "anonymous": false,
      "inputs": [
        {
          "indexed": true,
          "internalType": "address",
          "name": "owner",
          "type": "address"
        },
        {
          "indexed": true,
          "internalType": "address",
          "name": "approved",
          "type": "address"
        },
        {
          "indexed": true,
          "internalType": "uint256",
          "name": "tokenId",
          "type": "uint256"
        }
      ],
      "name": "Approval",
      "type": "event"
    },
    {
      "anonymous": false,
      "inputs": [
        {
          "indexed": true,
          "internalType": "address",
          "name": "owner",
          "type": "address"
        },
        {
          "indexed": true,
          "internalType": "address",
          "name": "operator",
          "type": "address"
        },
        {
          "indexed": false,
          "internalType": "bool",
          "name": "approved",
          "type": "bool"
        }
      ],
      "name": "ApprovalForAll",
      "type": "event"
    },
    {
      "constant": false,
      "inputs": [
        {
          "internalType": "string",
          "name": "_name",
          "type": "string"
        },
        {
          "internalType": "uint256",
          "name": "_price",
          "type": "uint256"
        }
      ],
      "name": "createProduct",
      "outputs": [],
      "payable": true,
      "stateMutability": "payable",
      "type": "function"
    },
    {
      "constant": false,
      "inputs": [
        {
          "internalType": "uint256",
          "name": "_id",
          "type": "uint256"
        }
      ],
      "name": "purchaseProduct",
      "outputs": [],
      "payable": true,
      "stateMutability": "payable",
      "type": "function"
    }
  ],
  "bytecode": "0x608060405260006007553480156200001657600080fd5b506200004b7f01ffc9a7000000000000000000000000000000000000000000000000000000006001600160e01b03620000cc16565b6200007f7f80ac58cd000000000000000000000000000000000000000000000000000000006001600160e01b03620000cc16565b6040805180820190915260108082527f6d61696e206d61726b6574706c616365000000000000000000000000000000006020909201918252620000c5916005916200019b565b5062000240565b7fffffffff0000000000000000000000000000000000000000000000000000000080821614156200015e57604080517f08c379a000000000000000000000000000000000000000000000000000000000815260206004820152601c60248201527f4552433136353a20696e76616c696420696e7465726661636520696400000000604482015290519081900360640190fd5b7fffffffff00000000000000000000000000000000000000000000000000000000166000908152602081905260409020805460ff19166001179055565b828054600181600116156101000203166002900490600052602060002090601f016020900481019282601f10620001de57805160ff19168380011785556200020e565b828001600101855582156200020e579182015b828111156200020e578251825591602001919060010190620001f1565b506200021c92915062000220565b5090565b6200023d91905b808211156200021c576000815560010162000227565b90565b611aa680620002506000396000f3fe6080604052600436106100e85760003560e01c80636352211e1161008a578063b88d4fde11610059578063b88d4fde14610455578063e0f6ef8714610528578063e9300c6c1461053d578063e985e9c5146105e5576100e8565b80636352211e146102e357806370a082311461030d5780637acc0b2014610352578063a22cb4651461041a576100e8565b8063095ea7b3116100c6578063095ea7b31461020557806323b872dd1461024057806338e76a031461028357806342842e0e146102a0576100e8565b806301ffc9a7146100ed57806306fdde0314610135578063081812fc146101bf575b600080fd5b3480156100f957600080fd5b506101216004803603602081101561011057600080fd5b50356001600160e01b031916610620565b604080519115158252519081900360200190f35b34801561014157600080fd5b5061014a61063f565b6040805160208082528351818301528351919283929083019185019080838360005b8381101561018457818101518382015260200161016c565b50505050905090810190601f1680156101b15780820380516001836020036101000a031916815260200191505b509250505060405180910390f35b3480156101cb57600080fd5b506101e9600480360360208110156101e257600080fd5b50356106cd565b604080516001600160a01b039092168252519081900360200190f35b34801561021157600080fd5b5061023e6004803603604081101561022857600080fd5b506001600160a01b03813516906020013561072f565b005b34801561024c57600080fd5b5061023e6004803603606081101561026357600080fd5b506001600160a01b03813581169160208101359091169060400135610857565b61023e6004803603602081101561029957600080fd5b50356108b3565b3480156102ac57600080fd5b5061023e600480360360608110156102c357600080fd5b506001600160a01b03813581169160208101359091169060400135610bb4565b3480156102ef57600080fd5b506101e96004803603602081101561030657600080fd5b5035610bcf565b34801561031957600080fd5b506103406004803603602081101561033057600080fd5b50356001600160a01b0316610c29565b60408051918252519081900360200190f35b34801561035e57600080fd5b5061037c6004803603602081101561037557600080fd5b5035610c91565b604080518681529081018490526001600160a01b0383166060820152811515608082015260a06020808301828152875192840192909252865160c084019188019080838360005b838110156103db5781810151838201526020016103c3565b50505050905090810190601f1680156104085780820380516001836020036101000a031916815260200191505b50965050505050505060405180910390f35b34801561042657600080fd5b5061023e6004803603604081101561043d57600080fd5b506001600160a01b0381351690602001351515610d59565b34801561046157600080fd5b5061023e6004803603608081101561047857600080fd5b6001600160a01b038235811692602081013590911691604082013591908101906080810160608201356401000000008111156104b357600080fd5b8201836020820111156104c557600080fd5b803590602001918460018302840111640100000000831117156104e757600080fd5b91908080601f016020809104026020016040519081016040528093929190818152602001838380828437600092019190915250929550610e5e945050505050565b34801561053457600080fd5b50610340610ebc565b61023e6004803603604081101561055357600080fd5b81019060208101813564010000000081111561056e57600080fd5b82018360208201111561058057600080fd5b803590602001918460018302840111640100000000831117156105a257600080fd5b91908080601f0160208091040260200160405190810160405280939291908181526020018383808284376000920191909152509295505091359250610ec2915050565b3480156105f157600080fd5b506101216004803603604081101561060857600080fd5b506001600160a01b038135811691602001351661107b565b6001600160e01b03191660009081526020819052604090205460ff1690565b6005805460408051602060026001851615610100026000190190941693909304601f810184900484028201840190925281815292918301828280156106c55780601f1061069a576101008083540402835291602001916106c5565b820191906000526020600020905b8154815290600101906020018083116106a857829003601f168201915b505050505081565b60006106d8826110a9565b6107135760405162461bcd60e51b815260040180806020018281038252602c8152602001806119cb602c913960400191505060405180910390fd5b506000908152600260205260409020546001600160a01b031690565b600061073a82610bcf565b9050806001600160a01b0316836001600160a01b0316141561078d5760405162461bcd60e51b8152600401808060200182810382526021815260200180611a206021913960400191505060405180910390fd5b806001600160a01b031661079f6110c6565b6001600160a01b031614806107c057506107c0816107bb6110c6565b61107b565b6107fb5760405162461bcd60e51b81526004018080602001828103825260388152602001806119406038913960400191505060405180910390fd5b60008281526002602052604080822080546001600160a01b0319166001600160a01b0387811691821790925591518593918516917f8c5be1e5ebec7d5bd14f71427d1e84f3dd0314c0f7b2291e5b200ac8c7c3b92591a4505050565b6108686108626110c6565b826110cb565b6108a35760405162461bcd60e51b8152600401808060200182810382526031815260200180611a416031913960400191505060405180910390fd5b6108ae83838361116f565b505050565b6108bb6117eb565b600660008381526020019081526020016000206040518060a001604052908160008201548152602001600182018054600181600116156101000203166002900480601f01602080910402602001604051908101604052809291908181526020018280546001816001161561010002031660029004801561097c5780601f106109515761010080835404028352916020019161097c565b820191906000526020600020905b81548152906001019060200180831161095f57829003601f168201915b5050509183525050600282015460208201526003909101546001600160a01b0381166040830152600160a01b900460ff161515606091820152810151815191925090158015906109cf5750600754825111155b6109d857600080fd5b81604001513410156109e957600080fd5b8160800151156109f857600080fd5b6001600160a01b038116331415610a0e57600080fd5b33606083015260016080830181905260008481526006602090815260409091208451815581850151805186949293610a4a938501920190611825565b5060408281015160028301556060830151600390920180546080909401511515600160a01b0260ff60a01b196001600160a01b039485166001600160a01b03199096169590951794909416939093179092559051908216903480156108fc02916000818181858888f19350505050158015610ac9573d6000803e3d6000fd5b50610ad5813385610bb4565b7f79558d0d7d4d900e2f15c4cc0a665f1acdbe415e44de900ecdd1e5bf12b56f4e600754836020015184604001513360016040518086815260200180602001858152602001846001600160a01b03166001600160a01b0316815260200183151515158152602001828103825286818151815260200191508051906020019080838360005b83811015610b71578181015183820152602001610b59565b50505050905090810190601f168015610b9e5780820380516001836020036101000a031916815260200191505b50965050505050505060405180910390a1505050565b6108ae83838360405180602001604052806000815250610e5e565b6000818152600160205260408120546001600160a01b031680610c235760405162461bcd60e51b81526004018080602001828103825260298152602001806119a26029913960400191505060405180910390fd5b92915050565b60006001600160a01b038216610c705760405162461bcd60e51b815260040180806020018281038252602a815260200180611978602a913960400191505060405180910390fd5b6001600160a01b0382166000908152600360205260409020610c23906112b3565b6006602090815260009182526040918290208054600180830180548651600293821615610100026000190190911692909204601f810186900486028301860190965285825291949293909290830182828015610d2e5780601f10610d0357610100808354040283529160200191610d2e565b820191906000526020600020905b815481529060010190602001808311610d1157829003601f168201915b5050505060028301546003909301549192916001600160a01b0381169150600160a01b900460ff1685565b610d616110c6565b6001600160a01b0316826001600160a01b03161415610dc7576040805162461bcd60e51b815260206004820152601960248201527f4552433732313a20617070726f766520746f2063616c6c657200000000000000604482015290519081900360640190fd5b8060046000610dd46110c6565b6001600160a01b03908116825260208083019390935260409182016000908120918716808252919093529120805460ff191692151592909217909155610e186110c6565b60408051841515815290516001600160a01b0392909216917f17307eab39ab6107e8899845ad3d59bd9653f200f220920489ca2b5937696c319181900360200190a35050565b610e6f610e696110c6565b836110cb565b610eaa5760405162461bcd60e51b8152600401808060200182810382526031815260200180611a416031913960400191505060405180910390fd5b610eb6848484846112b7565b50505050565b60075481565b6000825111610ed057600080fd5b60008111610edd57600080fd5b600780546001908101918290556040805160a08101825283815260208082018781528284018790523360608401526000608084018190529586526006825292909420815181559151805191949293610f3b9390850192910190611825565b50604082015160028201556060820151600390910180546080909301511515600160a01b0260ff60a01b196001600160a01b039093166001600160a01b03199094169390931791909116919091179055600754610f99903390611309565b610fa53060075461072f565b7fbc59c0c8165864dcceb377dd07d8f431d4303f8e501cb0a0374a10cc68d7183660075483833360006040518086815260200180602001858152602001846001600160a01b03166001600160a01b0316815260200183151515158152602001828103825286818151815260200191508051906020019080838360005b83811015611039578181015183820152602001611021565b50505050905090810190601f1680156110665780820380516001836020036101000a031916815260200191505b50965050505050505060405180910390a15050565b6001600160a01b03918216600090815260046020908152604080832093909416825291909152205460ff1690565b6000908152600160205260409020546001600160a01b0316151590565b335b90565b60006110d6826110a9565b6111115760405162461bcd60e51b815260040180806020018281038252602c815260200180611914602c913960400191505060405180910390fd5b600061111c83610bcf565b9050806001600160a01b0316846001600160a01b031614806111575750836001600160a01b031661114c846106cd565b6001600160a01b0316145b806111675750611167818561107b565b949350505050565b826001600160a01b031661118282610bcf565b6001600160a01b0316146111c75760405162461bcd60e51b81526004018080602001828103825260298152602001806119f76029913960400191505060405180910390fd5b6001600160a01b03821661120c5760405162461bcd60e51b81526004018080602001828103825260248152602001806118f06024913960400191505060405180910390fd5b6112158161143a565b6001600160a01b038316600090815260036020526040902061123690611477565b6001600160a01b03821660009081526003602052604090206112579061148e565b60008181526001602052604080822080546001600160a01b0319166001600160a01b0386811691821790925591518493918716917fddf252ad1be2c89b69c2b068fc378daa952ba7f163c4a11628f55a4df523b3ef91a4505050565b5490565b6112c284848461116f565b6112ce84848484611497565b610eb65760405162461bcd60e51b81526004018080602001828103825260328152602001806118be6032913960400191505060405180910390fd5b6001600160a01b038216611364576040805162461bcd60e51b815260206004820181905260248201527f4552433732313a206d696e7420746f20746865207a65726f2061646472657373604482015290519081900360640190fd5b61136d816110a9565b156113bf576040805162461bcd60e51b815260206004820152601c60248201527f4552433732313a20746f6b656e20616c7265616479206d696e74656400000000604482015290519081900360640190fd5b600081815260016020908152604080832080546001600160a01b0319166001600160a01b0387169081179091558352600390915290206113fe9061148e565b60405181906001600160a01b038416906000907fddf252ad1be2c89b69c2b068fc378daa952ba7f163c4a11628f55a4df523b3ef908290a45050565b6000818152600260205260409020546001600160a01b03161561147457600081815260026020526040902080546001600160a01b03191690555b50565b805461148a90600163ffffffff6116d216565b9055565b80546001019055565b60006114ab846001600160a01b031661171b565b6114b757506001611167565b600060606001600160a01b038616630a85bd0160e11b6114d56110c6565b89888860405160240180856001600160a01b03166001600160a01b03168152602001846001600160a01b03166001600160a01b0316815260200183815260200180602001828103825283818151815260200191508051906020019080838360005b8381101561154e578181015183820152602001611536565b50505050905090810190601f16801561157b5780820380516001836020036101000a031916815260200191505b5060408051601f198184030181529181526020820180516001600160e01b03166001600160e01b0319909a16999099178952518151919890975087965094509250829150849050835b602083106115e35780518252601f1990920191602091820191016115c4565b6001836020036101000a0380198251168184511680821785525050505050509050019150506000604051808303816000865af19150503d8060008114611645576040519150601f19603f3d011682016040523d82523d6000602084013e61164a565b606091505b50915091508161169b578051156116645780518082602001fd5b60405162461bcd60e51b81526004018080602001828103825260328152602001806118be6032913960400191505060405180910390fd5b60008180602001905160208110156116b257600080fd5b50516001600160e01b031916630a85bd0160e11b14935061116792505050565b600061171483836040518060400160405280601e81526020017f536166654d6174683a207375627472616374696f6e206f766572666c6f770000815250611754565b9392505050565b6000813f7fc5d2460186f7233c927e7db2dcc703c0e500b653ca82273b7bfad8045d85a470818114801590611167575050151592915050565b600081848411156117e35760405162461bcd60e51b81526004018080602001828103825283818151815260200191508051906020019080838360005b838110156117a8578181015183820152602001611790565b50505050905090810190601f1680156117d55780820380516001836020036101000a031916815260200191505b509250505060405180910390fd5b505050900390565b6040518060a0016040528060008152602001606081526020016000815260200160006001600160a01b031681526020016000151581525090565b828054600181600116156101000203166002900490600052602060002090601f016020900481019282601f1061186657805160ff1916838001178555611893565b82800160010185558215611893579182015b82811115611893578251825591602001919060010190611878565b5061189f9291506118a3565b5090565b6110c891905b8082111561189f57600081556001016118a956fe4552433732313a207472616e7366657220746f206e6f6e20455243373231526563656976657220696d706c656d656e7465724552433732313a207472616e7366657220746f20746865207a65726f20616464726573734552433732313a206f70657261746f7220717565727920666f72206e6f6e6578697374656e7420746f6b656e4552433732313a20617070726f76652063616c6c6572206973206e6f74206f776e6572206e6f7220617070726f76656420666f7220616c6c4552433732313a2062616c616e636520717565727920666f7220746865207a65726f20616464726573734552433732313a206f776e657220717565727920666f72206e6f6e6578697374656e7420746f6b656e4552433732313a20617070726f76656420717565727920666f72206e6f6e6578697374656e7420746f6b656e4552433732313a207472616e73666572206f6620746f6b656e2074686174206973206e6f74206f776e4552433732313a20617070726f76616c20746f2063757272656e74206f776e65724552433732313a207472616e736665722063616c6c6572206973206e6f74206f776e6572206e6f7220617070726f766564a265627a7a7231582093225fdfd4fb86a0e86cee4dd75dedf0e013dc8caf9de8738a11e5b9bc90450a64736f6c634300050b0032",
  "source": "pragma solidity 0.5.11;\r\n\r\nimport \"@openzeppelin/contracts/token/ERC721/ERC721.sol\";\r\n\r\ncontract Marketplace is ERC721 {\r\n\r\n\r\n    constructor() ERC721() public {\r\n        name = \"main marketplace\";\r\n    }\r\n\r\n    string public name;\r\n    mapping(uint => Product) public products;\r\n    uint public productCount = 0;\r\n\r\n    struct Product {\r\n        uint id;\r\n        string name;\r\n        uint price;\r\n        address payable owner;\r\n        bool purchased;\r\n    }\r\n\r\n    event ProductCreated(\r\n        uint id,\r\n        string name,\r\n        uint price,\r\n        address payable owner,\r\n        bool purchased\r\n    );\r\n\r\n    event ProductPurchased(\r\n        uint id,\r\n        string name,\r\n        uint price,\r\n        address payable owner,\r\n        bool purchased\r\n    );\r\n\r\n        \r\n\r\n        function createProduct(string memory _name, uint _price) public payable {\r\n        // Require a valid name\r\n        require(bytes(_name).length > 0);\r\n        // Require a valid price\r\n        require(_price > 0);\r\n        // Increment product count\r\n        productCount ++;\r\n        // Create the product\r\n        products[productCount] = Product(productCount, _name, _price, msg.sender, false);\r\n        _mint(msg.sender, productCount);\r\n        approve(address(this), productCount);\r\n        //_setTokenURI(newItemId, tokenURI);\r\n        // Trigger an event\r\n        emit ProductCreated(productCount, _name, _price, msg.sender, false);\r\n    }\r\n\r\n    function purchaseProduct(uint _id) public payable{\r\n        //fetch the product\r\n        Product memory _product = products[_id];\r\n        //fetch the owner\r\n        address payable _seller = _product.owner;\r\n        //make sure the product is valid id\r\n        require(_product.id > 0 && _product.id <= productCount);\r\n        //requre that there is enough ether in the transaction\r\n        require(msg.value >= _product.price);\r\n        //requre that the product has not been purchased already;\r\n        require(!_product.purchased);\r\n        //require that the buyer is not the seller\r\n        require(_seller != msg.sender);\r\n        //transfer ownership to buyer\r\n        _product.owner = msg.sender;\r\n        // mark as purchased\r\n        _product.purchased = true;\r\n        //updrate the product\r\n        products[_id] = _product;\r\n        //payy the seller by sending flare\r\n        address(_seller).transfer(msg.value);\r\n        safeTransferFrom(_seller,msg.sender, _id);\r\n\r\n        //trigger event\r\n        emit ProductPurchased(productCount, _product.name, _product.price, msg.sender, true);\r\n    }\r\n}\r\n\r\n",
  "sourcePath": "C:/Users/beast/crypto/sparkles/src/contracts/Marketplace.sol",
  "compiler": {
    "name": "solc",
    "version": "0.5.11+commit.c082d0b4.Emscripten.clang"
  },
  "schemaVersion": "3.3.4",
  "updatedAt": "2021-04-16T19:35:02.306Z",
  "devdoc": {
    "methods": {
      "approve(address,uint256)": {
        "details": "Approves another address to transfer the given token ID The zero address indicates there is no approved address. There can only be one approved address per token at a given time. Can only be called by the token owner or an approved operator.",
        "params": {
          "to": "address to be approved for the given token ID",
          "tokenId": "uint256 ID of the token to be approved"
        }
      },
      "balanceOf(address)": {
        "details": "Gets the balance of the specified address.",
        "params": {
          "owner": "address to query the balance of"
        },
        "return": "uint256 representing the amount owned by the passed address"
      },
      "getApproved(uint256)": {
        "details": "Gets the approved address for a token ID, or zero if no address set Reverts if the token ID does not exist.",
        "params": {
          "tokenId": "uint256 ID of the token to query the approval of"
        },
        "return": "address currently approved for the given token ID"
      },
      "isApprovedForAll(address,address)": {
        "details": "Tells whether an operator is approved by a given owner.",
        "params": {
          "operator": "operator address which you want to query the approval of",
          "owner": "owner address which you want to query the approval of"
        },
        "return": "bool whether the given operator is approved by the given owner"
      },
      "ownerOf(uint256)": {
        "details": "Gets the owner of the specified token ID.",
        "params": {
          "tokenId": "uint256 ID of the token to query the owner of"
        },
        "return": "address currently marked as the owner of the given token ID"
      },
      "safeTransferFrom(address,address,uint256)": {
        "details": "Safely transfers the ownership of a given token ID to another address If the target address is a contract, it must implement {IERC721Receiver-onERC721Received}, which is called upon a safe transfer, and return the magic value `bytes4(keccak256(\"onERC721Received(address,address,uint256,bytes)\"))`; otherwise, the transfer is reverted. Requires the msg.sender to be the owner, approved, or operator",
        "params": {
          "from": "current owner of the token",
          "to": "address to receive the ownership of the given token ID",
          "tokenId": "uint256 ID of the token to be transferred"
        }
      },
      "safeTransferFrom(address,address,uint256,bytes)": {
        "details": "Safely transfers the ownership of a given token ID to another address If the target address is a contract, it must implement {IERC721Receiver-onERC721Received}, which is called upon a safe transfer, and return the magic value `bytes4(keccak256(\"onERC721Received(address,address,uint256,bytes)\"))`; otherwise, the transfer is reverted. Requires the _msgSender() to be the owner, approved, or operator",
        "params": {
          "_data": "bytes data to send along with a safe transfer check",
          "from": "current owner of the token",
          "to": "address to receive the ownership of the given token ID",
          "tokenId": "uint256 ID of the token to be transferred"
        }
      },
      "setApprovalForAll(address,bool)": {
        "details": "Sets or unsets the approval of a given operator An operator is allowed to transfer all tokens of the sender on their behalf.",
        "params": {
          "approved": "representing the status of the approval to be set",
          "to": "operator address to set the approval"
        }
      },
      "supportsInterface(bytes4)": {
        "details": "See {IERC165-supportsInterface}.     * Time complexity O(1), guaranteed to always use less than 30 000 gas."
      },
      "transferFrom(address,address,uint256)": {
        "details": "Transfers the ownership of a given token ID to another address. Usage of this method is discouraged, use {safeTransferFrom} whenever possible. Requires the msg.sender to be the owner, approved, or operator.",
        "params": {
          "from": "current owner of the token",
          "to": "address to receive the ownership of the given token ID",
          "tokenId": "uint256 ID of the token to be transferred"
        }
      }
    }
  },
  "userdoc": {
    "methods": {}
  }
}