{
  "contractName": "Marketplace",
  "abi": [
    {
      "inputs": [],
      "stateMutability": "nonpayable",
      "type": "constructor"
    },
    {
      "anonymous": false,
      "inputs": [
        {
          "indexed": true,
          "internalType": "address",
          "name": "owner",
          "type": "address"
        },
        {
          "indexed": true,
          "internalType": "address",
          "name": "approved",
          "type": "address"
        },
        {
          "indexed": true,
          "internalType": "uint256",
          "name": "tokenId",
          "type": "uint256"
        }
      ],
      "name": "Approval",
      "type": "event"
    },
    {
      "anonymous": false,
      "inputs": [
        {
          "indexed": true,
          "internalType": "address",
          "name": "owner",
          "type": "address"
        },
        {
          "indexed": true,
          "internalType": "address",
          "name": "operator",
          "type": "address"
        },
        {
          "indexed": false,
          "internalType": "bool",
          "name": "approved",
          "type": "bool"
        }
      ],
      "name": "ApprovalForAll",
      "type": "event"
    },
    {
      "anonymous": false,
      "inputs": [
        {
          "indexed": true,
          "internalType": "address",
          "name": "previousOwner",
          "type": "address"
        },
        {
          "indexed": true,
          "internalType": "address",
          "name": "newOwner",
          "type": "address"
        }
      ],
      "name": "OwnershipTransferred",
      "type": "event"
    },
    {
      "anonymous": false,
      "inputs": [
        {
          "indexed": false,
          "internalType": "uint256",
          "name": "id",
          "type": "uint256"
        },
        {
          "indexed": false,
          "internalType": "string",
          "name": "name",
          "type": "string"
        },
        {
          "indexed": false,
          "internalType": "uint256",
          "name": "price",
          "type": "uint256"
        },
        {
          "indexed": false,
          "internalType": "address payable",
          "name": "owner",
          "type": "address"
        },
        {
          "indexed": false,
          "internalType": "bool",
          "name": "purchased",
          "type": "bool"
        }
      ],
      "name": "ProductCreated",
      "type": "event"
    },
    {
      "anonymous": false,
      "inputs": [
        {
          "indexed": false,
          "internalType": "uint256",
          "name": "id",
          "type": "uint256"
        },
        {
          "indexed": false,
          "internalType": "string",
          "name": "name",
          "type": "string"
        },
        {
          "indexed": false,
          "internalType": "uint256",
          "name": "price",
          "type": "uint256"
        },
        {
          "indexed": false,
          "internalType": "address payable",
          "name": "owner",
          "type": "address"
        },
        {
          "indexed": false,
          "internalType": "bool",
          "name": "purchased",
          "type": "bool"
        }
      ],
      "name": "ProductListed",
      "type": "event"
    },
    {
      "anonymous": false,
      "inputs": [
        {
          "indexed": false,
          "internalType": "uint256",
          "name": "id",
          "type": "uint256"
        },
        {
          "indexed": false,
          "internalType": "string",
          "name": "name",
          "type": "string"
        },
        {
          "indexed": false,
          "internalType": "uint256",
          "name": "price",
          "type": "uint256"
        },
        {
          "indexed": false,
          "internalType": "address payable",
          "name": "owner",
          "type": "address"
        },
        {
          "indexed": false,
          "internalType": "bool",
          "name": "purchased",
          "type": "bool"
        }
      ],
      "name": "ProductPurchased",
      "type": "event"
    },
    {
      "anonymous": false,
      "inputs": [
        {
          "indexed": true,
          "internalType": "address",
          "name": "from",
          "type": "address"
        },
        {
          "indexed": true,
          "internalType": "address",
          "name": "to",
          "type": "address"
        },
        {
          "indexed": true,
          "internalType": "uint256",
          "name": "tokenId",
          "type": "uint256"
        }
      ],
      "name": "Transfer",
      "type": "event"
    },
    {
      "inputs": [],
      "name": "BURN_ADDR",
      "outputs": [
        {
          "internalType": "address",
          "name": "",
          "type": "address"
        }
      ],
      "stateMutability": "view",
      "type": "function"
    },
    {
      "inputs": [],
      "name": "_contractOwner",
      "outputs": [
        {
          "internalType": "address payable",
          "name": "",
          "type": "address"
        }
      ],
      "stateMutability": "view",
      "type": "function"
    },
    {
      "inputs": [
        {
          "internalType": "address",
          "name": "to",
          "type": "address"
        },
        {
          "internalType": "uint256",
          "name": "tokenId",
          "type": "uint256"
        }
      ],
      "name": "approve",
      "outputs": [],
      "stateMutability": "nonpayable",
      "type": "function"
    },
    {
      "inputs": [
        {
          "internalType": "address",
          "name": "owner",
          "type": "address"
        }
      ],
      "name": "balanceOf",
      "outputs": [
        {
          "internalType": "uint256",
          "name": "",
          "type": "uint256"
        }
      ],
      "stateMutability": "view",
      "type": "function"
    },
    {
      "inputs": [],
      "name": "baseURI",
      "outputs": [
        {
          "internalType": "string",
          "name": "",
          "type": "string"
        }
      ],
      "stateMutability": "view",
      "type": "function"
    },
    {
      "inputs": [
        {
          "internalType": "uint256",
          "name": "tokenId",
          "type": "uint256"
        }
      ],
      "name": "getApproved",
      "outputs": [
        {
          "internalType": "address",
          "name": "",
          "type": "address"
        }
      ],
      "stateMutability": "view",
      "type": "function"
    },
    {
      "inputs": [
        {
          "internalType": "address",
          "name": "owner",
          "type": "address"
        },
        {
          "internalType": "address",
          "name": "operator",
          "type": "address"
        }
      ],
      "name": "isApprovedForAll",
      "outputs": [
        {
          "internalType": "bool",
          "name": "",
          "type": "bool"
        }
      ],
      "stateMutability": "view",
      "type": "function"
    },
    {
      "inputs": [],
      "name": "name",
      "outputs": [
        {
          "internalType": "string",
          "name": "",
          "type": "string"
        }
      ],
      "stateMutability": "view",
      "type": "function"
    },
    {
      "inputs": [],
      "name": "owner",
      "outputs": [
        {
          "internalType": "address",
          "name": "",
          "type": "address"
        }
      ],
      "stateMutability": "view",
      "type": "function"
    },
    {
      "inputs": [
        {
          "internalType": "uint256",
          "name": "tokenId",
          "type": "uint256"
        }
      ],
      "name": "ownerOf",
      "outputs": [
        {
          "internalType": "address",
          "name": "",
          "type": "address"
        }
      ],
      "stateMutability": "view",
      "type": "function"
    },
    {
      "inputs": [],
      "name": "productCount",
      "outputs": [
        {
          "internalType": "uint256",
          "name": "",
          "type": "uint256"
        }
      ],
      "stateMutability": "view",
      "type": "function"
    },
    {
      "inputs": [
        {
          "internalType": "uint256",
          "name": "",
          "type": "uint256"
        }
      ],
      "name": "products",
      "outputs": [
        {
          "internalType": "uint256",
          "name": "id",
          "type": "uint256"
        },
        {
          "internalType": "string",
          "name": "name",
          "type": "string"
        },
        {
          "internalType": "uint256",
          "name": "price",
          "type": "uint256"
        },
        {
          "internalType": "address payable",
          "name": "owner",
          "type": "address"
        },
        {
          "internalType": "bool",
          "name": "purchased",
          "type": "bool"
        }
      ],
      "stateMutability": "view",
      "type": "function"
    },
    {
      "inputs": [],
      "name": "renounceOwnership",
      "outputs": [],
      "stateMutability": "nonpayable",
      "type": "function"
    },
    {
      "inputs": [
        {
          "internalType": "address",
          "name": "from",
          "type": "address"
        },
        {
          "internalType": "address",
          "name": "to",
          "type": "address"
        },
        {
          "internalType": "uint256",
          "name": "tokenId",
          "type": "uint256"
        }
      ],
      "name": "safeTransferFrom",
      "outputs": [],
      "stateMutability": "nonpayable",
      "type": "function"
    },
    {
      "inputs": [
        {
          "internalType": "address",
          "name": "from",
          "type": "address"
        },
        {
          "internalType": "address",
          "name": "to",
          "type": "address"
        },
        {
          "internalType": "uint256",
          "name": "tokenId",
          "type": "uint256"
        },
        {
          "internalType": "bytes",
          "name": "_data",
          "type": "bytes"
        }
      ],
      "name": "safeTransferFrom",
      "outputs": [],
      "stateMutability": "nonpayable",
      "type": "function"
    },
    {
      "inputs": [
        {
          "internalType": "address",
          "name": "operator",
          "type": "address"
        },
        {
          "internalType": "bool",
          "name": "approved",
          "type": "bool"
        }
      ],
      "name": "setApprovalForAll",
      "outputs": [],
      "stateMutability": "nonpayable",
      "type": "function"
    },
    {
      "inputs": [
        {
          "internalType": "bytes4",
          "name": "interfaceId",
          "type": "bytes4"
        }
      ],
      "name": "supportsInterface",
      "outputs": [
        {
          "internalType": "bool",
          "name": "",
          "type": "bool"
        }
      ],
      "stateMutability": "view",
      "type": "function"
    },
    {
      "inputs": [],
      "name": "symbol",
      "outputs": [
        {
          "internalType": "string",
          "name": "",
          "type": "string"
        }
      ],
      "stateMutability": "view",
      "type": "function"
    },
    {
      "inputs": [
        {
          "internalType": "uint256",
          "name": "index",
          "type": "uint256"
        }
      ],
      "name": "tokenByIndex",
      "outputs": [
        {
          "internalType": "uint256",
          "name": "",
          "type": "uint256"
        }
      ],
      "stateMutability": "view",
      "type": "function"
    },
    {
      "inputs": [
        {
          "internalType": "address",
          "name": "owner",
          "type": "address"
        },
        {
          "internalType": "uint256",
          "name": "index",
          "type": "uint256"
        }
      ],
      "name": "tokenOfOwnerByIndex",
      "outputs": [
        {
          "internalType": "uint256",
          "name": "",
          "type": "uint256"
        }
      ],
      "stateMutability": "view",
      "type": "function"
    },
    {
      "inputs": [
        {
          "internalType": "uint256",
          "name": "tokenId",
          "type": "uint256"
        }
      ],
      "name": "tokenURI",
      "outputs": [
        {
          "internalType": "string",
          "name": "",
          "type": "string"
        }
      ],
      "stateMutability": "view",
      "type": "function"
    },
    {
      "inputs": [],
      "name": "totalSupply",
      "outputs": [
        {
          "internalType": "uint256",
          "name": "",
          "type": "uint256"
        }
      ],
      "stateMutability": "view",
      "type": "function"
    },
    {
      "inputs": [
        {
          "internalType": "address",
          "name": "from",
          "type": "address"
        },
        {
          "internalType": "address",
          "name": "to",
          "type": "address"
        },
        {
          "internalType": "uint256",
          "name": "tokenId",
          "type": "uint256"
        }
      ],
      "name": "transferFrom",
      "outputs": [],
      "stateMutability": "nonpayable",
      "type": "function"
    },
    {
      "inputs": [
        {
          "internalType": "address",
          "name": "newOwner",
          "type": "address"
        }
      ],
      "name": "transferOwnership",
      "outputs": [],
      "stateMutability": "nonpayable",
      "type": "function"
    },
    {
      "inputs": [
        {
          "internalType": "string",
          "name": "_name",
          "type": "string"
        },
        {
          "internalType": "uint256",
          "name": "_price",
          "type": "uint256"
        }
      ],
      "name": "createProduct",
      "outputs": [],
      "stateMutability": "payable",
      "type": "function"
    },
    {
      "inputs": [
        {
          "internalType": "uint256",
          "name": "_id",
          "type": "uint256"
        }
      ],
      "name": "purchaseProduct",
      "outputs": [],
      "stateMutability": "payable",
      "type": "function"
    },
    {
      "inputs": [
        {
          "internalType": "string",
          "name": "_name",
          "type": "string"
        },
        {
          "internalType": "uint256",
          "name": "_id",
          "type": "uint256"
        },
        {
          "internalType": "uint256",
          "name": "_price",
          "type": "uint256"
        }
      ],
      "name": "_listOld",
      "outputs": [],
      "stateMutability": "payable",
      "type": "function"
    },
    {
      "inputs": [
        {
          "internalType": "string",
          "name": "_name",
          "type": "string"
        },
        {
          "internalType": "uint256",
          "name": "_id",
          "type": "uint256"
        },
        {
          "internalType": "uint256",
          "name": "_price",
          "type": "uint256"
        }
      ],
      "name": "_listNew",
      "outputs": [],
      "stateMutability": "payable",
      "type": "function"
    },
    {
      "inputs": [
        {
          "internalType": "uint256",
          "name": "_id",
          "type": "uint256"
        }
      ],
      "name": "_burnNft",
      "outputs": [],
      "stateMutability": "nonpayable",
      "type": "function"
    },
    {
      "inputs": [
        {
          "internalType": "uint256",
          "name": "_id",
          "type": "uint256"
        }
      ],
      "name": "_delist",
      "outputs": [],
      "stateMutability": "nonpayable",
      "type": "function"
    }
  ],
  "bytecode": "0x6080604052600b80546001600160a01b031916737fdd0cda6c4dabed754ff2e75b9c4accd025f1721790556000600d553480156200003c57600080fd5b50604080518082018252600881527f537061726b6c65730000000000000000000000000000000000000000000000006020808301919091528251808401909352600383527f534b4c00000000000000000000000000000000000000000000000000000000009083015290620000d17f01ffc9a700000000000000000000000000000000000000000000000000000000620001e1565b8151620000e6906006906020850190620002b4565b508051620000fc906007906020840190620002b4565b50620001287f80ac58cd00000000000000000000000000000000000000000000000000000000620001e1565b620001537f5b5e139f00000000000000000000000000000000000000000000000000000000620001e1565b6200017e7f780e9d6300000000000000000000000000000000000000000000000000000000620001e1565b50600090506200018d620002b0565b600a80546001600160a01b0319166001600160a01b038316908117909155604051919250906000907f8be0079c531659141344cd1fd0a4f28419497f9722a3daafe3b4186f6b6457e0908290a35062000360565b7fffffffff0000000000000000000000000000000000000000000000000000000080821614156200027357604080517f08c379a000000000000000000000000000000000000000000000000000000000815260206004820152601c60248201527f4552433136353a20696e76616c696420696e7465726661636520696400000000604482015290519081900360640190fd5b7fffffffff00000000000000000000000000000000000000000000000000000000166000908152602081905260409020805460ff19166001179055565b3390565b828054600181600116156101000203166002900490600052602060002090601f016020900481019282620002ec576000855562000337565b82601f106200030757805160ff191683800117855562000337565b8280016001018555821562000337579182015b82811115620003375782518255916020019190600101906200031a565b506200034592915062000349565b5090565b5b808211156200034557600081556001016200034a565b61312a80620003706000396000f3fe6080604052600436106101cd5760003560e01c806370a08231116100f7578063a22cb46511610095578063e0f6ef8711610064578063e0f6ef87146108d2578063e9300c6c146108e7578063e985e9c51461098d578063f2fde38b146109c8576101cd565b8063a22cb465146106f3578063b88d4fde1461072e578063c87b56dd146107ff578063d52b9e6514610829576101cd565b80637acc0b20116100d15780637acc0b20146105d65780638da5cb5b1461069f57806395d89b41146106b4578063a100e2cd146106c9576101cd565b806370a0823114610579578063715018a6146105ac578063783028a9146105c1576101cd565b80632bb3b1141161016f5780634f6ccce71161013e5780634f6ccce7146104675780636352211e1461049157806364ceefc9146104bb5780636c0360eb14610564576101cd565b80632bb3b114146103b95780632f745c59146103ce57806338e76a031461040757806342842e0e14610424576101cd565b8063095ea7b3116101ab578063095ea7b3146102ea57806318160ddd146103255780631f341d0f1461034c57806323b872dd14610376576101cd565b806301ffc9a7146101d257806306fdde031461021a578063081812fc146102a4575b600080fd5b3480156101de57600080fd5b50610206600480360360208110156101f557600080fd5b50356001600160e01b0319166109fb565b604080519115158252519081900360200190f35b34801561022657600080fd5b5061022f610a1e565b6040805160208082528351818301528351919283929083019185019080838360005b83811015610269578181015183820152602001610251565b50505050905090810190601f1680156102965780820380516001836020036101000a031916815260200191505b509250505060405180910390f35b3480156102b057600080fd5b506102ce600480360360208110156102c757600080fd5b5035610ab4565b604080516001600160a01b039092168252519081900360200190f35b3480156102f657600080fd5b506103236004803603604081101561030d57600080fd5b506001600160a01b038135169060200135610b16565b005b34801561033157600080fd5b5061033a610bf1565b60408051918252519081900360200190f35b34801561035857600080fd5b506103236004803603602081101561036f57600080fd5b5035610c02565b34801561038257600080fd5b506103236004803603606081101561039957600080fd5b506001600160a01b03813581169160208101359091169060400135610e02565b3480156103c557600080fd5b506102ce610e59565b3480156103da57600080fd5b5061033a600480360360408110156103f157600080fd5b506001600160a01b038135169060200135610e68565b6103236004803603602081101561041d57600080fd5b5035610e93565b34801561043057600080fd5b506103236004803603606081101561044757600080fd5b506001600160a01b038135811691602081013590911690604001356110f4565b34801561047357600080fd5b5061033a6004803603602081101561048a57600080fd5b503561110f565b34801561049d57600080fd5b506102ce600480360360208110156104b457600080fd5b5035611125565b610323600480360360608110156104d157600080fd5b810190602081018135600160201b8111156104eb57600080fd5b8201836020820111156104fd57600080fd5b803590602001918460018302840111600160201b8311171561051e57600080fd5b91908080601f016020809104026020016040519081016040528093929190818152602001838380828437600092019190915250929550508235935050506020013561114d565b34801561057057600080fd5b5061022f6113e3565b34801561058557600080fd5b5061033a6004803603602081101561059c57600080fd5b50356001600160a01b0316611444565b3480156105b857600080fd5b506103236114ac565b3480156105cd57600080fd5b506102ce61156a565b3480156105e257600080fd5b50610600600480360360208110156105f957600080fd5b5035611572565b6040518086815260200180602001858152602001846001600160a01b031681526020018315158152602001828103825286818151815260200191508051906020019080838360005b83811015610660578181015183820152602001610648565b50505050905090810190601f16801561068d5780820380516001836020036101000a031916815260200191505b50965050505050505060405180910390f35b3480156106ab57600080fd5b506102ce61163a565b3480156106c057600080fd5b5061022f611649565b3480156106d557600080fd5b50610323600480360360208110156106ec57600080fd5b50356116aa565b3480156106ff57600080fd5b506103236004803603604081101561071657600080fd5b506001600160a01b038135169060200135151561186b565b34801561073a57600080fd5b506103236004803603608081101561075157600080fd5b6001600160a01b03823581169260208101359091169160408201359190810190608081016060820135600160201b81111561078b57600080fd5b82018360208201111561079d57600080fd5b803590602001918460018302840111600160201b831117156107be57600080fd5b91908080601f016020809104026020016040519081016040528093929190818152602001838380828437600092019190915250929550611970945050505050565b34801561080b57600080fd5b5061022f6004803603602081101561082257600080fd5b50356119ce565b6103236004803603606081101561083f57600080fd5b810190602081018135600160201b81111561085957600080fd5b82018360208201111561086b57600080fd5b803590602001918460018302840111600160201b8311171561088c57600080fd5b91908080601f0160208091040260200160405190810160405280939291908181526020018383808284376000920191909152509295505082359350505060200135611c4f565b3480156108de57600080fd5b5061033a611dc2565b610323600480360360408110156108fd57600080fd5b810190602081018135600160201b81111561091757600080fd5b82018360208201111561092957600080fd5b803590602001918460018302840111600160201b8311171561094a57600080fd5b91908080601f0160208091040260200160405190810160405280939291908181526020018383808284376000920191909152509295505091359250611dc8915050565b34801561099957600080fd5b50610206600480360360408110156109b057600080fd5b506001600160a01b0381358116916020013516611f76565b3480156109d457600080fd5b50610323600480360360208110156109eb57600080fd5b50356001600160a01b0316611fa4565b6001600160e01b0319811660009081526020819052604090205460ff165b919050565b60068054604080516020601f6002600019610100600188161502019095169490940493840181900481028201810190925282815260609390929091830182828015610aaa5780601f10610a7f57610100808354040283529160200191610aaa565b820191906000526020600020905b815481529060010190602001808311610a8d57829003601f168201915b5050505050905090565b6000610abf826120b9565b610afa5760405162461bcd60e51b815260040180806020018281038252602c81526020018061301f602c913960400191505060405180910390fd5b506000908152600460205260409020546001600160a01b031690565b6000610b2182611125565b9050806001600160a01b0316836001600160a01b03161415610b745760405162461bcd60e51b81526004018080602001828103825260218152602001806130a36021913960400191505060405180910390fd5b806001600160a01b0316610b866120c6565b6001600160a01b03161480610ba75750610ba781610ba26120c6565b611f76565b610be25760405162461bcd60e51b8152600401808060200182810382526038815260200180612f726038913960400191505060405180910390fd5b610bec83836120ca565b505050565b6000610bfd6002612138565b905090565b6000818152600c60209081526040808320815160a08101835281548152600180830180548551600293821615610100026000190190911692909204601f81018790048702830187019095528482529194929385840193919291830182828015610cac5780601f10610c8157610100808354040283529160200191610cac565b820191906000526020600020905b815481529060010190602001808311610c8f57829003601f168201915b5050509183525050600282015460208201526003909101546001600160a01b0381166040830152600160a01b900460ff16151560609182015281015181519192509015801590610cff5750600d54825111155b610d0857600080fd5b6001600160a01b0381163314610d1d57600080fd5b60018260800190151590811515815250507f07c1646479055a4fb6f43c8e8bd7b9c4930ef945f3b2b85bd2a2e9af9d0b1a76600d54836020015184604001513360016040518086815260200180602001858152602001846001600160a01b031681526020018315158152602001828103825286818151815260200191508051906020019080838360005b83811015610dbf578181015183820152602001610da7565b50505050905090810190601f168015610dec5780820380516001836020036101000a031916815260200191505b50965050505050505060405180910390a1505050565b610e13610e0d6120c6565b82612143565b610e4e5760405162461bcd60e51b81526004018080602001828103825260318152602001806130c46031913960400191505060405180910390fd5b610bec8383836121e7565b600b546001600160a01b031681565b6001600160a01b0382166000908152600160205260408120610e8a9083612333565b90505b92915050565b6000818152600c60209081526040808320815160a08101835281548152600180830180548551600293821615610100026000190190911692909204601f81018790048702830187019095528482529194929385840193919291830182828015610f3d5780601f10610f1257610100808354040283529160200191610f3d565b820191906000526020600020905b815481529060010190602001808311610f2057829003601f168201915b5050509183525050600282015460208201526003909101546001600160a01b0381166040830152600160a01b900460ff16151560609182015281015181519192509015801590610f905750600d54825111155b610f9957600080fd5b8160400151341015610faa57600080fd5b816080015115610fb957600080fd5b6001600160a01b038116331415610fcf57600080fd5b3360608301526001608083018190526000848152600c60209081526040909120845181558185015180518694929361100b938501920190612e06565b50604082015160028201556060820151600390910180546080909301511515600160a01b0260ff60a01b196001600160a01b039093166001600160a01b031990941693909317919091169190911790556110648361233f565b7f79558d0d7d4d900e2f15c4cc0a665f1acdbe415e44de900ecdd1e5bf12b56f4e600d54836020015184604001513360016040518086815260200180602001858152602001846001600160a01b0316815260200183151581526020018281038252868181518152602001915080519060200190808383600083811015610dbf578181015183820152602001610da7565b610bec83838360405180602001604052806000815250611970565b60008061111d6002846124d9565b509392505050565b6000610e8d82604051806060016040528060298152602001612fd460299139600291906124f5565b600083511161115b57600080fd5b6000811161116857600080fd5b6000828152600c60209081526040808320815160a08101835281548152600180830180548551600293821615610100026000190190911692909204601f810187900487028301870190955284825291949293858401939192918301828280156112125780601f106111e757610100808354040283529160200191611212565b820191906000526020600020905b8154815290600101906020018083116111f557829003601f168201915b5050509183525050600282015460208201526003909101546001600160a01b038082166040840152600160a01b90910460ff16151560609283015290820151919250339082161461126257600080fd5b600d8490556040805160a0810182528581526020808201888152828401879052336060840152600060808401819052888152600c83529390932082518155925180519293926112b79260018501920190612e06565b50604082015160028201556060820151600390910180546080909301511515600160a01b0260ff60a01b196001600160a01b039093166001600160a01b03199094169390931791909116919091179055600d54611315903090610b16565b7f07c1646479055a4fb6f43c8e8bd7b9c4930ef945f3b2b85bd2a2e9af9d0b1a76600d5486853360006040518086815260200180602001858152602001846001600160a01b031681526020018315158152602001828103825286818151815260200191508051906020019080838360005b8381101561139e578181015183820152602001611386565b50505050905090810190601f1680156113cb5780820380516001836020036101000a031916815260200191505b50965050505050505060405180910390a15050505050565b60098054604080516020601f6002600019610100600188161502019095169490940493840181900481028201810190925282815260609390929091830182828015610aaa5780601f10610a7f57610100808354040283529160200191610aaa565b60006001600160a01b03821661148b5760405162461bcd60e51b815260040180806020018281038252602a815260200180612faa602a913960400191505060405180910390fd5b6001600160a01b0382166000908152600160205260409020610e8d90612138565b6114b46120c6565b6001600160a01b03166114c561163a565b6001600160a01b031614611520576040805162461bcd60e51b815260206004820181905260248201527f4f776e61626c653a2063616c6c6572206973206e6f7420746865206f776e6572604482015290519081900360640190fd5b600a546040516000916001600160a01b0316907f8be0079c531659141344cd1fd0a4f28419497f9722a3daafe3b4186f6b6457e0908390a3600a80546001600160a01b0319169055565b630508009981565b600c602090815260009182526040918290208054600180830180548651600293821615610100026000190190911692909204601f81018690048602830186019096528582529194929390929083018282801561160f5780601f106115e45761010080835404028352916020019161160f565b820191906000526020600020905b8154815290600101906020018083116115f257829003601f168201915b5050505060028301546003909301549192916001600160a01b0381169150600160a01b900460ff1685565b600a546001600160a01b031690565b60078054604080516020601f6002600019610100600188161502019095169490940493840181900481028201810190925282815260609390929091830182828015610aaa5780601f10610a7f57610100808354040283529160200191610aaa565b6000818152600c60209081526040808320815160a08101835281548152600180830180548551600293821615610100026000190190911692909204601f810187900487028301870190955284825291949293858401939192918301828280156117545780601f1061172957610100808354040283529160200191611754565b820191906000526020600020905b81548152906001019060200180831161173757829003601f168201915b5050509183525050600282015460208201526003909101546001600160a01b0381166040830152600160a01b900460ff161515606091820152810151815191925090158015906117a75750600d54825111155b6117b057600080fd5b6001600160a01b03811633146117c557600080fd5b600160808301526117db336305080099856121e7565b7f07c1646479055a4fb6f43c8e8bd7b9c4930ef945f3b2b85bd2a2e9af9d0b1a76600d54836020015184604001513360016040518086815260200180602001858152602001846001600160a01b0316815260200183151581526020018281038252868181518152602001915080519060200190808383600083811015610dbf578181015183820152602001610da7565b6118736120c6565b6001600160a01b0316826001600160a01b031614156118d9576040805162461bcd60e51b815260206004820152601960248201527f4552433732313a20617070726f766520746f2063616c6c657200000000000000604482015290519081900360640190fd5b80600560006118e66120c6565b6001600160a01b03908116825260208083019390935260409182016000908120918716808252919093529120805460ff19169215159290921790915561192a6120c6565b6001600160a01b03167f17307eab39ab6107e8899845ad3d59bd9653f200f220920489ca2b5937696c318360405180821515815260200191505060405180910390a35050565b61198161197b6120c6565b83612143565b6119bc5760405162461bcd60e51b81526004018080602001828103825260318152602001806130c46031913960400191505060405180910390fd5b6119c88484848461250c565b50505050565b60606119d9826120b9565b611a145760405162461bcd60e51b815260040180806020018281038252602f815260200180613074602f913960400191505060405180910390fd5b60008281526008602090815260408083208054825160026001831615610100026000190190921691909104601f810185900485028201850190935282815292909190830182828015611aa75780601f10611a7c57610100808354040283529160200191611aa7565b820191906000526020600020905b815481529060010190602001808311611a8a57829003601f168201915b505050505090506000611ab86113e3565b9050805160001415611acc57509050610a19565b815115611b8d5780826040516020018083805190602001908083835b60208310611b075780518252601f199092019160209182019101611ae8565b51815160209384036101000a600019018019909216911617905285519190930192850191508083835b60208310611b4f5780518252601f199092019160209182019101611b30565b6001836020036101000a0380198251168184511680821785525050505050509050019250505060405160208183030381529060405292505050610a19565b80611b978561255e565b6040516020018083805190602001908083835b60208310611bc95780518252601f199092019160209182019101611baa565b51815160209384036101000a600019018019909216911617905285519190930192850191508083835b60208310611c115780518252601f199092019160209182019101611bf2565b6001836020036101000a0380198251168184511680821785525050505050509050019250505060405160208183030381529060405292505050919050565b6000828152600c60209081526040808320815160a08101835281548152600180830180548551600293821615610100026000190190911692909204601f81018790048702830187019095528482529194929385840193919291830182828015611cf95780601f10611cce57610100808354040283529160200191611cf9565b820191906000526020600020905b815481529060010190602001808311611cdc57829003601f168201915b5050509183525050600282015460208201526003909101546001600160a01b038082166040840152600160a01b90910460ff161515606092830152908201519192503390821614611d4957600080fd5b6000855111611d5757600080fd5b60008311611d6457600080fd5b600d80546001908101918290556040805160a08101825283815260208082018a8152828401899052336060840152600060808401819052958652600c8252929094208151815591518051919492936112b79390850192910190612e06565b600d5481565b6000825111611dd657600080fd5b60008111611de357600080fd5b600d80546001908101918290556040805160a0810182528381526020808201878152828401879052336060840152600060808401819052958652600c825292909420815181559151805191949293611e419390850192910190612e06565b50604082015160028201556060820151600390910180546080909301511515600160a01b0260ff60a01b196001600160a01b039093166001600160a01b03199094169390931791909116919091179055600d54611e9f903390612639565b611eab30600d54610b16565b7fbc59c0c8165864dcceb377dd07d8f431d4303f8e501cb0a0374a10cc68d71836600d5483833360006040518086815260200180602001858152602001846001600160a01b031681526020018315158152602001828103825286818151815260200191508051906020019080838360005b83811015611f34578181015183820152602001611f1c565b50505050905090810190601f168015611f615780820380516001836020036101000a031916815260200191505b50965050505050505060405180910390a15050565b6001600160a01b03918216600090815260056020908152604080832093909416825291909152205460ff1690565b611fac6120c6565b6001600160a01b0316611fbd61163a565b6001600160a01b031614612018576040805162461bcd60e51b815260206004820181905260248201527f4f776e61626c653a2063616c6c6572206973206e6f7420746865206f776e6572604482015290519081900360640190fd5b6001600160a01b03811661205d5760405162461bcd60e51b8152600401808060200182810382526026815260200180612efc6026913960400191505060405180910390fd5b600a546040516001600160a01b038084169216907f8be0079c531659141344cd1fd0a4f28419497f9722a3daafe3b4186f6b6457e090600090a3600a80546001600160a01b0319166001600160a01b0392909216919091179055565b6000610e8d600283612767565b3390565b600081815260046020526040902080546001600160a01b0319166001600160a01b03841690811790915581906120ff82611125565b6001600160a01b03167f8c5be1e5ebec7d5bd14f71427d1e84f3dd0314c0f7b2291e5b200ac8c7c3b92560405160405180910390a45050565b6000610e8d82612773565b600061214e826120b9565b6121895760405162461bcd60e51b815260040180806020018281038252602c815260200180612f46602c913960400191505060405180910390fd5b600061219483611125565b9050806001600160a01b0316846001600160a01b031614806121cf5750836001600160a01b03166121c484610ab4565b6001600160a01b0316145b806121df57506121df8185611f76565b949350505050565b826001600160a01b03166121fa82611125565b6001600160a01b03161461223f5760405162461bcd60e51b815260040180806020018281038252602981526020018061304b6029913960400191505060405180910390fd5b6001600160a01b0382166122845760405162461bcd60e51b8152600401808060200182810382526024815260200180612f226024913960400191505060405180910390fd5b61228f838383610bec565b61229a6000826120ca565b6001600160a01b03831660009081526001602052604090206122bc9082612777565b506001600160a01b03821660009081526001602052604090206122df9082612783565b506122ec6002828461278f565b5080826001600160a01b0316846001600160a01b03167fddf252ad1be2c89b69c2b068fc378daa952ba7f163c4a11628f55a4df523b3ef60405160405180910390a4505050565b6000610e8a83836127a5565b33600061234b83611125565b6000848152600c60209081526040808320815160a08101835281548152600180830180548551600293821615610100026000190190911692909204601f810187900487028301870190955284825296975094959094919385810193908301828280156123f85780601f106123cd576101008083540402835291602001916123f8565b820191906000526020600020905b8154815290600101906020018083116123db57829003601f168201915b5050509183525050600282015460208201526003909101546001600160a01b0381166040830152600160a01b900460ff161515606090910152905061243e8284866121e7565b6000602882604001518161244e57fe5b0490506000818360400151039050836001600160a01b03166108fc829081150290604051600060405180830381858888f19350505050158015612495573d6000803e3d6000fd5b50600b546040516001600160a01b039091169083156108fc029084906000818181858888f193505050501580156124d0573d6000803e3d6000fd5b50505050505050565b60008080806124e88686612809565b9097909650945050505050565b6000612502848484612884565b90505b9392505050565b6125178484846121e7565b6125238484848461294e565b6119c85760405162461bcd60e51b8152600401808060200182810382526032815260200180612eca6032913960400191505060405180910390fd5b60608161258357506040805180820190915260018152600360fc1b6020820152610a19565b8160005b811561259b57600101600a82049150612587565b60008167ffffffffffffffff811180156125b457600080fd5b506040519080825280601f01601f1916602001820160405280156125df576020820181803683370190505b50859350905060001982015b831561263057600a840660300160f81b8282806001900393508151811061260e57fe5b60200101906001600160f81b031916908160001a905350600a840493506125eb565b50949350505050565b6001600160a01b038216612694576040805162461bcd60e51b815260206004820181905260248201527f4552433732313a206d696e7420746f20746865207a65726f2061646472657373604482015290519081900360640190fd5b61269d816120b9565b156126ef576040805162461bcd60e51b815260206004820152601c60248201527f4552433732313a20746f6b656e20616c7265616479206d696e74656400000000604482015290519081900360640190fd5b6126fb60008383610bec565b6001600160a01b038216600090815260016020526040902061271d9082612783565b5061272a6002828461278f565b5060405181906001600160a01b038416906000907fddf252ad1be2c89b69c2b068fc378daa952ba7f163c4a11628f55a4df523b3ef908290a45050565b6000610e8a8383612ab6565b5490565b6000610e8a8383612ace565b6000610e8a8383612b94565b600061250284846001600160a01b038516612bde565b815460009082106127e75760405162461bcd60e51b8152600401808060200182810382526022815260200180612ea86022913960400191505060405180910390fd5b8260000182815481106127f657fe5b9060005260206000200154905092915050565b81546000908190831061284d5760405162461bcd60e51b8152600401808060200182810382526022815260200180612ffd6022913960400191505060405180910390fd5b600084600001848154811061285e57fe5b906000526020600020906002020190508060000154816001015492509250509250929050565b6000828152600184016020526040812054828161291f5760405162461bcd60e51b81526004018080602001828103825283818151815260200191508051906020019080838360005b838110156128e45781810151838201526020016128cc565b50505050905090810190601f1680156129115780820380516001836020036101000a031916815260200191505b509250505060405180910390fd5b5084600001600182038154811061293257fe5b9060005260206000209060020201600101549150509392505050565b6000612962846001600160a01b0316612c75565b61296e575060016121df565b6000612a7c630a85bd0160e11b6129836120c6565b88878760405160240180856001600160a01b03168152602001846001600160a01b0316815260200183815260200180602001828103825283818151815260200191508051906020019080838360005b838110156129ea5781810151838201526020016129d2565b50505050905090810190601f168015612a175780820380516001836020036101000a031916815260200191505b5095505050505050604051602081830303815290604052906001600160e01b0319166020820180516001600160e01b038381831617835250505050604051806060016040528060328152602001612eca603291396001600160a01b0388169190612c7b565b90506000818060200190516020811015612a9557600080fd5b50516001600160e01b031916630a85bd0160e11b1492505050949350505050565b60009081526001919091016020526040902054151590565b60008181526001830160205260408120548015612b8a5783546000198083019190810190600090879083908110612b0157fe5b9060005260206000200154905080876000018481548110612b1e57fe5b600091825260208083209091019290925582815260018981019092526040902090840190558654879080612b4e57fe5b60019003818190600052602060002001600090559055866001016000878152602001908152602001600020600090556001945050505050610e8d565b6000915050610e8d565b6000612ba08383612ab6565b612bd657508154600181810184556000848152602080822090930184905584548482528286019093526040902091909155610e8d565b506000610e8d565b600082815260018401602052604081205480612c43575050604080518082018252838152602080820184815286546001818101895560008981528481209551600290930290950191825591519082015586548684528188019092529290912055612505565b82856000016001830381548110612c5657fe5b9060005260206000209060020201600101819055506000915050612505565b3b151590565b6060612502848460008585612c8f85612c75565b612ce0576040805162461bcd60e51b815260206004820152601d60248201527f416464726573733a2063616c6c20746f206e6f6e2d636f6e7472616374000000604482015290519081900360640190fd5b600080866001600160a01b031685876040518082805190602001908083835b60208310612d1e5780518252601f199092019160209182019101612cff565b6001836020036101000a03801982511681845116808217855250505050505090500191505060006040518083038185875af1925050503d8060008114612d80576040519150601f19603f3d011682016040523d82523d6000602084013e612d85565b606091505b5091509150612d95828286612da0565b979650505050505050565b60608315612daf575081612505565b825115612dbf5782518084602001fd5b60405162461bcd60e51b81526020600482018181528451602484015284518593919283926044019190850190808383600083156128e45781810151838201526020016128cc565b828054600181600116156101000203166002900490600052602060002090601f016020900481019282612e3c5760008555612e82565b82601f10612e5557805160ff1916838001178555612e82565b82800160010185558215612e82579182015b82811115612e82578251825591602001919060010190612e67565b50612e8e929150612e92565b5090565b5b80821115612e8e5760008155600101612e9356fe456e756d657261626c655365743a20696e646578206f7574206f6620626f756e64734552433732313a207472616e7366657220746f206e6f6e20455243373231526563656976657220696d706c656d656e7465724f776e61626c653a206e6577206f776e657220697320746865207a65726f20616464726573734552433732313a207472616e7366657220746f20746865207a65726f20616464726573734552433732313a206f70657261746f7220717565727920666f72206e6f6e6578697374656e7420746f6b656e4552433732313a20617070726f76652063616c6c6572206973206e6f74206f776e6572206e6f7220617070726f76656420666f7220616c6c4552433732313a2062616c616e636520717565727920666f7220746865207a65726f20616464726573734552433732313a206f776e657220717565727920666f72206e6f6e6578697374656e7420746f6b656e456e756d657261626c654d61703a20696e646578206f7574206f6620626f756e64734552433732313a20617070726f76656420717565727920666f72206e6f6e6578697374656e7420746f6b656e4552433732313a207472616e73666572206f6620746f6b656e2074686174206973206e6f74206f776e4552433732314d657461646174613a2055524920717565727920666f72206e6f6e6578697374656e7420746f6b656e4552433732313a20617070726f76616c20746f2063757272656e74206f776e65724552433732313a207472616e736665722063616c6c6572206973206e6f74206f776e6572206e6f7220617070726f766564a2646970667358221220f3732775be4cf494b5f49ef4b2aea599e81a60602bf6116cf28fb431f3fa8a4664736f6c63430007060033",
  "immutableReferences": {},
  "source": "pragma solidity >=0.6.0 <0.8.0;\r\n\r\nimport \"@openzeppelin/contracts/token/ERC721/ERC721.sol\";\r\nimport \"@openzeppelin/contracts/access/Ownable.sol\";\r\n\r\n\r\ncontract Marketplace is ERC721, Ownable{\r\n\r\n    //address public constant MARKET_ADDR = 0x1B0a6e0878E8276FF15991a2a474e51c042a7BB5;\r\n    address public constant BURN_ADDR = 0x0000000000000000000000000000000005080099;\r\n    address payable public _contractOwner = 0x7FDD0CdA6c4DABeD754fF2E75b9c4ACcD025F172;\r\n\r\n   constructor() ERC721(\"Sparkles\", \"SKL\") {}\r\n\r\n    mapping(uint => Product) public products;\r\n    uint public productCount = 0;\r\n\r\n    struct Product {\r\n        uint id;\r\n        string name;\r\n        uint price;\r\n        address payable owner;\r\n        bool purchased;\r\n    }\r\n\r\n    event ProductCreated(\r\n        uint id,\r\n        string name,\r\n        uint price,\r\n        address payable owner,\r\n        bool purchased\r\n    );\r\n\r\n    event ProductPurchased(\r\n        uint id,\r\n        string name,\r\n        uint price,\r\n        address payable owner,\r\n        bool purchased\r\n    );\r\n\r\n    event ProductListed(\r\n        uint id,\r\n        string name,\r\n        uint price,\r\n        address payable owner,\r\n        bool purchased\r\n        );\r\n\r\n        function createProduct(string memory _name, uint _price) external payable {\r\n            // Require a valid name\r\n            require(bytes(_name).length > 0);\r\n            // Require a valid price\r\n            require(_price > 0);\r\n            // Increment product count\r\n            productCount ++;\r\n            // Create the product\r\n            products[productCount] = Product(productCount, _name, _price, msg.sender, false);\r\n            _mint(msg.sender, productCount);\r\n            //_setTokenURI(productCount, _name);\r\n            approve(address(this), productCount);\r\n            // Trigger an event\r\n            emit ProductCreated(productCount, _name, _price, msg.sender, false);\r\n    }\r\n\r\n        function purchaseProduct(uint _id) external payable{\r\n            //fetch the product\r\n            Product memory _product = products[_id];\r\n            //fetch the owner\r\n            address payable _seller = _product.owner;\r\n            //make sure the product is valid id\r\n            require(_product.id > 0 && _product.id <= productCount);\r\n            //requre that there is enough ether in the transaction\r\n            require(msg.value >= _product.price);\r\n            //requre that the product has not been purchased already;\r\n            require(!_product.purchased);\r\n            //require that the buyer is not the seller\r\n            require(_seller != msg.sender);\r\n            //transfer ownership to buyer\r\n            _product.owner = msg.sender;\r\n            // mark as purchased\r\n            _product.purchased = true;\r\n            //updrate the product\r\n            products[_id] = _product;\r\n            //payy the seller by sending flare\r\n            _trade(_id);\r\n            //trigger event\r\n            emit ProductPurchased(productCount, _product.name, _product.price, msg.sender, true);\r\n    }\r\n\r\n\r\n        function _trade(uint _id) internal {\r\n            address payable _buyer = payable(msg.sender);\r\n            address payable _owner = payable(ownerOf(_id));\r\n            Product memory _product = products[_id];\r\n            _transfer(_owner, _buyer, _id);\r\n            // 2.5% commission cut\r\n            uint _commissionValue = _product.price / 40 ;\r\n            uint _sellerValue = _product.price - _commissionValue;\r\n            _owner.transfer(_sellerValue);\r\n            _contractOwner.transfer(_commissionValue);\r\n\r\n    }\r\n\r\n    //for products already minted on sparkles \r\n\r\n        function _listOld(string memory _name,uint _id, uint _price ) external payable { \r\n            require(bytes(_name).length > 0);\r\n            // Require a valid price\r\n            require(_price > 0);\r\n            Product memory _product = products[_id];\r\n            address payable _seller = _product.owner;\r\n            require(_seller == msg.sender);\r\n            productCount = _id;\r\n            products[productCount] = Product(productCount, _name, _price, msg.sender, false);\r\n            approve(address(this), productCount);\r\n            emit ProductListed(productCount, _name, _price, msg.sender, false);\r\n\r\n    }\r\n\r\n    //for already minted products not minted on sparkles\r\n        function _listNew(string memory _name,uint _id, uint _price ) external payable {\r\n            \r\n            //fetch the product\r\n            Product memory _product = products[_id];\r\n            //fetch the owner\r\n            address payable _seller = _product.owner;\r\n            require(_seller == msg.sender);\r\n            // Require a valid name\r\n            require(bytes(_name).length > 0);\r\n            // Require a valid price\r\n            require(_price > 0);\r\n            // Increment product count\r\n            productCount ++;\r\n            // Create the product\r\n            products[productCount] = Product(productCount, _name, _price, msg.sender, false);\r\n            approve(address(this), productCount);\r\n            emit ProductListed(productCount, _name, _price, msg.sender, false);\r\n    }\r\n\r\n    // burn function product must be delisted\r\n        function _burnNft(uint _id)public {\r\n            //fetch the product\r\n            Product memory _product = products[_id];\r\n            //fetch the owner\r\n            address payable _seller = _product.owner;\r\n            //make sure the product is valid id\r\n            require(_product.id > 0 && _product.id <= productCount);\r\n            require(_seller == msg.sender);\r\n            require(_product.purchased = true);\r\n            \r\n            _transfer(msg.sender, BURN_ADDR, _id);\r\n            emit ProductListed(productCount, _product.name, _product.price, msg.sender, true);\r\n\r\n    }\r\n\r\n        function _delist(uint _id) public {\r\n            //fetch the product\r\n            Product memory _product = products[_id];\r\n            //fetch the owner\r\n            address payable _seller = _product.owner;\r\n            //make sure the product is valid id\r\n            require(_product.id > 0 && _product.id <= productCount);\r\n            require(_seller == msg.sender);\r\n            _product.purchased = true;\r\n            emit ProductListed(productCount, _product.name, _product.price, msg.sender, true);\r\n    }\r\n\r\n}\r\n\r\n\r\n",
  "sourcePath": "/Users/luisalves/Documents/GitHub/sparkles/main/src/contracts/Marketplace.sol",
  "compiler": {
    "name": "solc",
    "version": "0.7.6+commit.7338295f.Emscripten.clang"
  },
  "schemaVersion": "3.3.4",
  "updatedAt": "2021-05-21T06:53:42.582Z",
  "devdoc": {
    "kind": "dev",
    "methods": {
      "approve(address,uint256)": {
        "details": "See {IERC721-approve}."
      },
      "balanceOf(address)": {
        "details": "See {IERC721-balanceOf}."
      },
      "baseURI()": {
        "details": "Returns the base URI set via {_setBaseURI}. This will be automatically added as a prefix in {tokenURI} to each token's URI, or to the token ID if no specific URI is set for that token ID."
      },
      "getApproved(uint256)": {
        "details": "See {IERC721-getApproved}."
      },
      "isApprovedForAll(address,address)": {
        "details": "See {IERC721-isApprovedForAll}."
      },
      "name()": {
        "details": "See {IERC721Metadata-name}."
      },
      "owner()": {
        "details": "Returns the address of the current owner."
      },
      "ownerOf(uint256)": {
        "details": "See {IERC721-ownerOf}."
      },
      "renounceOwnership()": {
        "details": "Leaves the contract without owner. It will not be possible to call `onlyOwner` functions anymore. Can only be called by the current owner. NOTE: Renouncing ownership will leave the contract without an owner, thereby removing any functionality that is only available to the owner."
      },
      "safeTransferFrom(address,address,uint256)": {
        "details": "See {IERC721-safeTransferFrom}."
      },
      "safeTransferFrom(address,address,uint256,bytes)": {
        "details": "See {IERC721-safeTransferFrom}."
      },
      "setApprovalForAll(address,bool)": {
        "details": "See {IERC721-setApprovalForAll}."
      },
      "supportsInterface(bytes4)": {
        "details": "See {IERC165-supportsInterface}. Time complexity O(1), guaranteed to always use less than 30 000 gas."
      },
      "symbol()": {
        "details": "See {IERC721Metadata-symbol}."
      },
      "tokenByIndex(uint256)": {
        "details": "See {IERC721Enumerable-tokenByIndex}."
      },
      "tokenOfOwnerByIndex(address,uint256)": {
        "details": "See {IERC721Enumerable-tokenOfOwnerByIndex}."
      },
      "tokenURI(uint256)": {
        "details": "See {IERC721Metadata-tokenURI}."
      },
      "totalSupply()": {
        "details": "See {IERC721Enumerable-totalSupply}."
      },
      "transferFrom(address,address,uint256)": {
        "details": "See {IERC721-transferFrom}."
      },
      "transferOwnership(address)": {
        "details": "Transfers ownership of the contract to a new account (`newOwner`). Can only be called by the current owner."
      }
    },
    "version": 1
  },
  "userdoc": {
    "kind": "user",
    "methods": {},
    "version": 1
  }
}